9000000001ABC PIZZA                               
9000000002TEST IT SERVICES                        
9000000003FUNNY PETS INC.                         
9000000004LALA KI DUKAN                           
